{
  "contractName": "Marriage",
  "abi": [
    {
      "inputs": [
        {
          "internalType": "address",
          "name": "partner1",
          "type": "address"
        },
        {
          "internalType": "address",
          "name": "partner2",
          "type": "address"
        }
      ],
      "name": "createMarriage",
      "outputs": [
        {
          "internalType": "string",
          "name": "",
          "type": "string"
        }
      ],
      "stateMutability": "pure",
      "type": "function",
      "constant": true
    },
    {
      "inputs": [],
      "name": "divorce",
      "outputs": [
        {
          "internalType": "string",
          "name": "",
          "type": "string"
        }
      ],
      "stateMutability": "pure",
      "type": "function",
      "constant": true
    }
  ],
  "bytecode": "0x608060405234801561001057600080fd5b5061036b806100206000396000f3fe608060405234801561001057600080fd5b50600436106100365760003560e01c8063245d132c1461003b578063dff44b2f1461006b575b600080fd5b610055600480360381019061005091906101d7565b610089565b60405161006291906102a7565b60405180910390f35b610073610137565b60405161008091906102a7565b60405180910390f35b60608173ffffffffffffffffffffffffffffffffffffffff168373ffffffffffffffffffffffffffffffffffffffff16036100f9576040517f08c379a00000000000000000000000000000000000000000000000000000000081526004016100f090610315565b60405180910390fd5b6040518060400160405280600d81526020017f46656c696369746174696f6e7300000000000000000000000000000000000000815250905092915050565b60606040518060400160405280600f81526020017f4469766f726365206163636f7264650000000000000000000000000000000000815250905090565b600080fd5b600073ffffffffffffffffffffffffffffffffffffffff82169050919050565b60006101a482610179565b9050919050565b6101b481610199565b81146101bf57600080fd5b50565b6000813590506101d1816101ab565b92915050565b600080604083850312156101ee576101ed610174565b5b60006101fc858286016101c2565b925050602061020d858286016101c2565b9150509250929050565b600081519050919050565b600082825260208201905092915050565b60005b83811015610251578082015181840152602081019050610236565b60008484015250505050565b6000601f19601f8301169050919050565b600061027982610217565b6102838185610222565b9350610293818560208601610233565b61029c8161025d565b840191505092915050565b600060208201905081810360008301526102c1818461026e565b905092915050565b7f4e6f6e2076616c69646500000000000000000000000000000000000000000000600082015250565b60006102ff600a83610222565b915061030a826102c9565b602082019050919050565b6000602082019050818103600083015261032e816102f2565b905091905056fea264697066735822122078d372d92357d128ad099d4feeae3db60b0b1d5c806d0924cfd51f8535100da864736f6c63430008120033",
  "immutableReferences": {},
  "source": "// SPDX-License-Identifier: MIT\r\npragma solidity ^0.8.13;\r\ncontract Marriage {\r\n    function createMarriage(address partner1, address partner2) public pure returns (string memory) {\r\n        require(partner1 != partner2, \"Non valide\");\r\n        return \"Felicitations\";\r\n    }\r\n    \r\n    function divorce() public pure returns (string memory) {\r\n        return \"Divorce accorde\";\r\n    }\r\n}\r\n\r\n",
  "sourcePath": "C:\\Users\\Sara AWAD\\Desktop\\cours.informatique\\Mariage-project\\contracts\\mariage.sol",
  "compiler": {
    "name": "solc",
    "version": "0.8.18+commit.87f61d96.Emscripten.clang"
  },
  "schemaVersion": "3.4.15",
  "updatedAt": "2023-08-24T14:01:08.644Z",
  "networkType": "ethereum",
  "devdoc": {
    "kind": "dev",
    "methods": {},
    "version": 1
  },
  "userdoc": {
    "kind": "user",
    "methods": {},
    "version": 1
  }
}